S01000005465726D696E616C2E73726563D8
S11300000C9455000C94BD0A0C94E60A0C940F0B46
S11300100C9472000C9472000C9472000C94720094
S11300200C9472000C9472000C9472000C94720084
S11300300C9472000C94ED0C0C9472000C94160D3C
S11300400C9472000C9472000C9472000C94F90BD2
S11300500C9472006B068B066D066F0673067506AC
S113006077067B067D067F068306850687064E4156
S11300704E494E495459494E46CDCCCC3D0AD7231E
S11300803C17B7D13877CC2B329595E6241FB14F66
S11300900A000020410000C84200401C4620BCBEAB
S11300A04CCA1B0E5AAEC59D740011241FBECFE569
S11300B0D8E0DEBFCDBF13E0A0E6B0E0E4EDF3E2AC
S11300C002C005900D92A431B107D9F727E0A4E14D
S11300D0B3E001C01D92A934B207E1F70E943409CC
S11300E00C94E8110C940000CF93DF9300D000D05F
S11300F0CDB7DEB719821A821B821C820BC089819C
S11301009A81AB81BC810196A11DB11D89839A831B
S1130110AB83BC8389819A81AB81BC818039904D4A
S1130120A340B10560F30F900F900F900F90DF91F3
S1130130CF9108952F923F924F925F926F927F9248
S11301408F929F92AF92BF92CF92DF92EF92FF92E3
S11301500F931F93CF93DF932B013C016A01790125
S113016020E030E040E251E40E94AC0D0E941E0EFB
S1130170C1E0D0E010C0CE01880F991FCC0FDD1F65
S1130180CC0FDD1FCC0FDD1FC80FD91FCB016AE0D8
S113019070E00E948C0F6115710569F780E090E0B2
S11301A001E010E00CC09801220F331F000F111F53
S11301B0000F111F000F111F020F131F01968E1540
S11301C09F058CF3C301B2010E941E0E4B015C011A
S11301D00E94560E9B01AC01C301B2010E943F0D67
S11301E02B013C01B801012E000C880B990B0E94D5
S11301F0560EA30192010E94E70E0E941E0E2B01CF
S11302003C01E12CF12C20C016012E0C3F1C9E0158
S11302100D2E000C440B550BC501B4010E94A00F18
S1130220CA01B9012AE030E040E050E00E94A00F8A
S1130230605DF1016083CE016AE070E00E948C0F82
S1130240EB01FFEFEF1AFF0A2097F1F6E701219681
S1130250F601EE0DFF1D8EE28083C8016AE070E0B6
S11302600E948C0F8B011EC07601EC0EFD1E9801BE
S1130270012E000C440B550BC301B2010E94A00FC8
S1130280CA01B9012AE030E040E050E00E94A00F2A
S1130290605DF7016083C8016AE070E00E948C0F22
S11302A08B01219601151105F9F6CC0DDD1D18827F
S11302B0DF91CF911F910F91FF90EF90DF90CF903E
S11302C0BF90AF909F908F907F906F905F904F9072
S11302D03F902F9008954F925F926F927F928F92EA
S11302E09F92AF92BF92CF92DF92EF92FF920F93C1
S11302F01F93CF93DF93CDB7DEB7E5970FB6F8948E
S1130300DEBF0FBECDBF809160008130D9F40E9462
S1130310B70860E080E00E94C10881E690E00E9496
S1130320E50861E080E00E94C10882E790E00E9455
S1130330E5080E9474000E94B70880E890E00E94DB
S1130340E50896C1811172C182E08093600060E08B
S11303508CE00E9477096FE0CE0101960E94500C58
S113036061E08CE00E94770966E173E080E290E04E
S11303700E94AD0510E035C0812F90E04096AE019B
S11303804F5E5F4F69E070E082959295907F982769
S1130390807F98270E940F0699818989981320C02D
S11303A09A818A8998131CC09B818B89981318C0E1
S11303B09C818C89981314C09D818D89981310C0D9
S11303C09E818E8998130CC09F818F89981308C0D1
S11303D09885888D981304C09985898D981729F07C
S11303E01F5F80911603181738F2809116031817AF
S11303F008F007C10E94B7088EE890E00E94E50863
S113040061E080E00E94C108CE01C2960E94CC0641
S11304108AE20E94DB08CE01C3960E94CC068AE2DF
S11304200E94DB08CE01C4960E94CC068AE20E9498
S1130430DB08CE01C5960E94CC068AE20E94DB0846
S11304409B858AA99813CCC09C858BA99813C8C096
S11304509D858CA99813C4C09E858DA99813C0C08E
S11304600E94B70889E990E00E94E50861E080E015
S11304700E94C108CE018B960E94CC068BA50E94D7
S1130480DB08CE018C960E94CC068CA50E94DB086A
S1130490CE018D960E94CC068DA50E94DB08CE016C
S11304A08E960E94CC068EA50E94DB088EE28FA752
S11304B00E94DB08CE01C0960E94CC0688A90E9447
S11304C0DB08CE01C1960E94CC0689A90E94DB08F4
S11304D0CE018B960E94E70F4B015C01AE014D5D8E
S11304E05F4F67E070E080E390E00E940F06CE016A
S11304F083960E94E70F2B013C01812F90E0805BE3
S11305009F4F8C0102951295107F1027007F1027B2
S1130510AE01455E5F4F67E070E0C8010E940F06C0
S1130520CE014B960E94E70F6B017C010E94B70835
S1130530A3019201C501B4010E94E20E18167CF4D5
S113054087EA90E00E94E50861E080E00E94C1082B
S113055087EB90E00E94E5080E94740089C0A7011F
S11305609601C501B4010E94E20E18167CF484ECD5
S113057090E00E94E50861E080E00E94C10883EDFC
S113058090E00E94E5080E94740072C08EED90E035
S11305900E94E50861E080E00E94C1088CEE90E0D2
S11305A00E94E508A5019401C701B6010E943F0D10
S11305B022E030E0AE01455E5F4F0E949A00AE013A
S11305C0455E5F4F69E070E0C8010E94D10589E093
S11305D00E9472050E94740089E00E94800548C050
S11305E00E94B70889EF90E00E94E50861E080E08E
S11305F00E94C10888E091E00E94E5080E9474000E
S113060037C080916000823099F50E94B70888E174
S113061091E00E94E50861E080E00E94C10888E062
S113062091E00E94E5080E94740022C00E94B7086D
S113063060E080E00E94C10887E291E00E94E50842
S113064061E080E00E94C10884E391E00E94E50833
S11306500E9474000E94B70884E491E00E94E508B7
S113066061E080E00E94C10882E591E00E94E50813
S1130670E5960FB6F894DEBF0FBECDBFDF91CF91E4
S11306801F910F91FF90EF90DF90CF90BF90AF90AC
S11306909F908F907F906F905F904F9008950E94ED
S11306A06E0C0E94390C60E084E00E94570881E0DF
S11306B00E94930660E08AE00E94220589E00E947D
S11306C060050E94F8080E948E0582E00E942E0AAE
S11306D062E083E00E94440A61E08CE00E947709B2
S11306E040E651E065E070E080E190E00E94D105D1
S11306F062E08BE691E00E949F0A0895EF92FF92D8
S11307001F93CF93DF93CDB7DEB7E0970FB6F8947E
S1130710DEBF0FBECDBF18AA80911503811186C11B
S11307200E94B70884E491E00E94E50861E080E05B
S11307300E94C10882E591E00E94E50886E691E006
S11307400E949B0C6FEFCE014B960E94C10C8DE072
S113075090E00E947C0C8B8D813409F0D3C09C8D79
S1130760943409F0CFC09D8D9D3409F0CBC09E8D8B
S1130770993409F0C7C09F8D9E3409F0C3C081E04D
S1130780809360000E94B70880E890E00E94E5082A
S11307908BE891E00E949B0C6FEFCE0181960E9442
S11307A0C10CAE01495D5F4F65E070E080E190E00F
S11307B00E940F0699A18FA1981399C09AA188A5A8
S11307C0981395C09BA189A5981391C09CA18AA553
S11307D098138DC09DA18BA5981389C08DE090E0DE
S11307E00E947C0C8CE991E00E949B0C81EC91E0CE
S11307F00E949B0C83ED91E00E949B0C86EE91E09D
S11308000E949B0C8DE090E00E947C0CCE018F96A0
S11308100E94CC068FA5813309F050C08FEE91E081
S11308200E949B0C84E193E00E948A0C6091140363
S113083060536093140380E290E00E9492058DE07F
S113084090E00E947C0C10E034C08BE092E00E94A7
S11308509B0C6FEFCE0101960E94C10CE12EF12C8E
S1130860C7014096AE014F5F5F4F69E070E082952B
S11308709295907F9827807F98270E94D1058EE1DA
S113088092E00E949B0C6FEFCE010B960E94C10C6C
S1130890C701805B9F4FAE01455F5F4F67E070E02B
S11308A082959295907F9827807F98270E94D10502
S11308B01F5F80911403181740F214C0823391F41F
S11308C085E392E00E949B0C6FEFCE0143960E9459
S11308D0C10CAE014D5E5F4F67E070E080E390E0D5
S11308E00E94D1058FA5833309F078CF08C083E532
S11308F092E00E949B0C8DE090E00E947C0C109290
S1130900150394C0853509F089C08C8D833509F0B1
S113091085C08D8D853409F081C08E8D823509F0B6
S11309207DC082E0809360001092150371C00E9424
S1130930B70885E692E00E94E50861E080E00E9445
S1130940C10886E792E00E94E508CE018F960E94D6
S1130950CC068FA58133D9F40E94B70886E892E0CB
S11309600E94E50861E080E00E94C10885E992E008
S11309700E94E5081092600080E090E00E947C0CE8
S1130980809160008230E1F71092150341C08233F8
S1130990E9F581E080931503CE01C0960E94010918
S11309A00E94B70883EA92E00E94E50888A94AE019
S11309B0BE01635D7F4F90E00E94EB0FCE018D96E8
S11309C00E94E50888A9833390F00E94B70882EB5F
S11309D092E00E94E50861E080E00E94C10882EC98
S11309E092E00E94E50881E08093150311C061E064
S11309F080E00E94C10883ED92E00E94E508CE01E8
S1130A008F960E94CC061092150302C01092150313
S1130A1080911503882309F48ACF08C081EE92E0FF
S1130A200E949B0C8DE090E00E947C0CE0960FB637
S1130A30F894DEBF0FBECDBFDF91CF911F91FF9021
S1130A40EF9008950F931F93CF93DF931F92CDB729
S1130A50DEB7623070F5062F182F462F60E00E9433
S1130A603909BE016F5F7F4F812F0E949F098981E1
S1130A70811102C0002321F0813041F4013031F4AE
S1130A80E12FF0E0EA5EFB4F108206C0E12FF0E0B8
S1130A90EA5EFB4F83E08083812F90E0FC01E95EF6
S1130AA0FC4F0083FC01EB5EFA4F21E0208381E0E0
S1130AB001C080E00F90DF91CF911F910F910895B5
S1130AC0CF93C82F40E061E00E94390960E08C2F89
S1130AD00E947709EC2FF0E0EC5EF94F81E080830F
S1130AE0CF910895E82FF0E0EC5EF94F90819130BA
S1130AF029F461E00E94770981E0089580E0089577
S1130B00E82FF0E0EC5EF94F9081913029F460E039
S1130B100E94770981E0089580E008950E943B0BCC
S1130B2081E008951F93CF93DF93182FD62F9770EA
S1130B30C92FC0650E94630B60E08C2F0E94810B5B
S1130B40812F0E94A90B8D2F0E94A90B0E947D0B5F
S1130B5081E0DF91CF911F9108950F931F93CF935D
S1130B60DF93D82F8B019770C92FC0650E94630B48
S1130B7060E08C2F0E94810B8D2F0E94A90B0E9494
S1130B80700B61E08C2F0E94810B61E0C8010E9410
S1130B90C20B0E947D0B81E0DF91CF911F910F91D9
S1130BA00895CF92DF92EF92FF920F931F93CF930A
S1130BB0DF934115510539F1292F2770C22FC065E4
S1130BC09C01260F371F21153840F8F47A018B0158
S1130BD06C010E94630B60E08C2F0E94810B8C2DB2
S1130BE00E94A90BC0E0D0E007C0F701EC0FFD1F85
S1130BF080810E94A90B2196C017D107B0F30E94EF
S1130C007D0B81E003C080E001C080E0DF91CF91E3
S1130C101F910F91FF90EF90DF90CF900895CF92A6
S1130C20DF92EF92FF920F931F93CF9341155105DB
S1130C30A9F1292F2770C22FC0659C01260F371FE9
S1130C402115384068F58A017B016C010E94630B11
S1130C5060E08C2F0E94810B8C2D0E94A90B0E94B6
S1130C60700B61E08C2F0E94810BC0E006C060E035
S1130C70800F911F0E94C20BCF5F8C2F90E09701D1
S1130C80215031098217930790F361E0800F911F7F
S1130C900E94C20B0E947D0B81E003C080E001C072
S1130CA080E0CF911F910F91FF90EF90DF90CF9054
S1130CB0089570E061507109FB01EE0FFF1FE60F0C
S1130CC0F71FE80FF11D3197ED30F10510F5E65DE2
S1130CD0FF4F0C94BF0F81E3089583E3089581309F
S1130CE0E1F484E3089585E3089586E3089581306B
S1130CF0B1F487E3089588E3089589E30895813082
S1130D0081F48AE2089580E3089583E2089584E4F7
S1130D10089580E2089582E3089581E4089582E4C9
S1130D20089583E408951F93CF93DF93823068F08E
S1130D3080E02EC0EC2FF0E0E550FD4F41E060E094
S1130D4080810E943909CF5F02C0D82FC0E04C2FA8
S1130D5050E024E030E02D1B31094217530750F3D3
S1130D60C0E00FC0EC2FF0E0E150FD4F108140E0F7
S1130D7061E0812F0E94390961E0812F0E94770987
S1130D80CF5FC43078F3D093130781E080931407C6
S1130D90DF91CF911F9108958F929F92BF92CF922E
S1130DA0DF92EF92FF920F931F93CF93DF931F92E3
S1130DB0CDB7DEB720911407213009F449C080E093
S1130DC054C0EC2CF12CF701E150FD4F60E0808120
S1130DD00E947709D12C1EC00D2D10E0F801E550BA
S1130DE0FD4FBE016F5F7F4F80810E949F09898103
S1130DF0882351F00EC0BE016F5F7F4FF801E550AC
S1130E00FD4F80810E949F0989818823A1F3BB241F
S1130E10B394D3942D2D30E04091130784E090E0F7
S1130E20841B91092817390710F4BB20A9F2F70194
S1130E30E150FD4F61E080810E947709C39401C0B5
S1130E40C12C83E08C1540F0BB2009F4BACF04C058
S1130E504C01D12CC12CB12CBB2091F36C2D8D2DC8
S1130E600E945906F401808381E00F90DF91CF91B5
S1130E701F910F91FF90EF90DF90CF90BF909F90C4
S1130E808F9008950F931F93CF93DF9300D000D0DA
S1130E90CDB7DEB719821A821B821C820CC049812D
S1130EA05A816B817C814F5F5F4F6F4F7F4F4983C6
S1130EB05A836B837C83AC01440F551F440F551F29
S1130EC060E070E009811A812B813C8104171507C9
S1130ED02607370720F30F900F900F900F90DF91A4
S1130EE0CF911F910F9108951F93CF93DF93C82F34
S1130EF060E085E10E94770960E086E10E9477095D
S1130F00809115078830E1F40DC06C2F61706195F4
S1130F10C695ED2FF0E0E95FFC4F80810E947709D0
S1130F20DF5F01C0D0E080911507D81770F361E04E
S1130F3087E10E94770960E087E10E9477093EC05B
S1130F408430E1F51C2F12951F70D0E00CC0612F86
S1130F50617061951695ED2FF0E0ED5FFC4F808197
S1130F600E947709DF5F80911507D81780F361E04D
S1130F7087E10E94770960E087E10E947709CF70DA
S1130F80D0E00CC06C2F61706195C695ED2FF0E038
S1130F90ED5FFC4F80810E947709DF5F8091150728
S1130FA0D81780F361E087E10E94770960E087E168
S1130FB00E94770988EC90E00E944207DF91CF916C
S1130FC01F9108950F931F93CF93DF93C82F61E070
S1130FD085E10E94770960E086E10E9477098091AB
S1130FE015078830F9F40DC06C2F61706195C695B2
S1130FF0F801E95FFC4F80810E9477090F5F1F4F62
S113100002C000E010E08091150790E0081719076E
S113101058F361E087E10E94770960E087E10E946C
S1131020770940C08430F1F5DC2FD295DF7000E001
S113103010E00CC06D2F61706195D695F801ED5FDD
S1131040FC4F80810E9477090F5F1F4F8091150725
S113105090E00817190770F361E087E10E947709AF
S113106060E087E10E947709CF7000E010E00CC0D7
S11310706C2F61706195C695F801ED5FFC4F80811E
S11310800E9477090F5F1F4F8091150790E00817A2
S1131090190770F361E087E10E94770960E087E156
S11310A00E947709DF91CF911F910F9108951F93AB
S11310B0CF93DF93843019F0883009F051C0623047
S11310C008F050C0162FC82F8093150740E061E048
S11310D085E10E94390940E061E086E10E94390916
S11310E040E061E087E10E943909C43069F0D0E052
S11310F022C0ED2FF0E0ED5FFC4F40E061E0808125
S11311000E943909DF5F01C0D0E0DC1790F383E36C
S11311100E94740782E30E94740788E20E947407A5
S11311200FC0ED2FF0E0E95FFC4F40E061E080810B
S11311300E943909DF5FDC17A0F388E30E9474077B
S1131140111104C08CE00E94740703C08EE00E9459
S1131150740781E00E94740781E08093160703C03E
S113116080E001C080E0DF91CF911F9108958091CC
S11311701607813021F40E94740781E0089580E00D
S11311800895611109C090911607913029F480588F
S11311900E94740781E00895613049F49091160724
S11311A0913039F480540E94740781E0089580E0FE
S11311B0089580E0089590911607913021F40E94DB
S11311C0E20781E0089580E00895CF93DF93EC0176
S11311D080911607813029F080E007C00E94E20761
S11311E0219688818111FACF81E0DF91CF91089512
S11311F047E060E081E00E94CB0981E0809317071B
S113120008950F931F93CF93DF9300D0CDB7DEB72C
S11312109C01909117079130F9F48901BE016F5F29
S11312207F4F80E00E94FE0969817A8180E090E02E
S11312300E94540E20E030E44CE950E40E94E70E92
S113124020E030E040E251E40E94AC0D0E94250E03
S1131250F801608381E001C080E00F900F90DF917E
S1131260CF911F910F9108950E944F030E947E0316
S1131270FDCF8032B0F56230B0F54230B0F5E82FE2
S1131280E695E695E695F0E0E15FFC4FE081F0E05D
S1131290DF015E91982F977021E030E0092E02C0A3
S11312A0220F331F0A94E2F7209570E0092E02C042
S11312B0660F771F0A94E2F7352F3223632B6C9362
S11312C0308150E002C0440F551F9A95E2F7232362
S11312D0422B4083E82FF0E0E85EF84F81E0808302
S11312E0089580E0089580E0089580E00895E82F4F
S11312F0F0E0E85EF84F90819130F9F4E82FE6953C
S1131300E695E695F0E0E15FFC4FE081F0E0908146
S1131310877021E030E0082E02C0220F331F0A94A8
S1131320E2F770E002C0660F771F8A95E2F7209516
S11313302923622B608381E0089580E00895E82FDB
S1131340F0E0E85EF84F9081913019F5E82FE695CA
S1131350E695E695F0E0E15FFC4FE081F0E032973E
S11313609081877021E030E0A901082E02C0440F6B
S1131370551F0A94E2F7292F30E024233523A901CD
S113138002C0559547958A95E2F7FB01408381E0B9
S1131390089580E00895843048F5823049F1623040
S11313A048F5483048F527B130E4839FC001112443
S11313B0922F9F73892B87B927B130E2639FC001B5
S11313C01124922F9F7D892B87B96093380786B1AA
S11313D0887F4F5F482B46B986B1806886B986B14D
S11313E0877F86B981E080933907089580E0089566
S11313F080E0089580E0089580E008959091390791
S1131400913051F597B1907E892B87B986B180646C
S113141086B9349BFECF8091380781110CC024B16A
S113142085B1837090E0982F8827822BFB019183EC
S1131430808381E0089524B1229526952695237012
S113144085B190E0880F991F880F991F822BFB01AB
S11314509183808381E0089580E00895813041F094
S113146018F0823049F00BC08BB780648BBF07C083
S11314708BB780688BBF03C08BB780628BBF8FB77D
S113148080688FBF81E00895611124C08130D9F054
S113149028F0823089F0833041F04FC085B78E7FC9
S11314A085BF85B78D7F85BF48C085B7816085BFFF
S11314B085B7826085BF41C085B78E7F85BF85B7FC
S11314C0826085BF3AC085B7816085BF85B78D7F4F
S11314D085BF33C0613021F58130D9F028F08230E6
S11314E089F0833041F029C085B78B7F85BF85B7EC
S11314F0877F85BF22C085B7846085BF85B7886034
S113150085BF1BC085B78B7F85BF85B7886085BFC6
S113151014C085B7846085BF85B7877F85BF0DC03C
S1131520623059F4823031F0833039F485B7806405
S113153085BF03C085B78F7B85BF81E00895009781
S1131540C1F0611106C0909346078093450781E07E
S11315500895613031F4909342078093410781E00C
S11315600895623041F4909344078093430781E0E7
S1131570089580E0089581E008951F920F920FB6B8
S11315800F9211242F933F934F935F936F937F9305
S11315908F939F93AF93BF93EF93FF93E09145078E
S11315A0F0914607309709F00995FF91EF91BF91AB
S11315B0AF919F918F917F916F915F914F913F91E7
S11315C02F910F900FBE0F901F9018951F920F929E
S11315D00FB60F9211242F933F934F935F936F9302
S11315E07F938F939F93AF93BF93EF93FF93E09178
S11315F04107F0914207309709F00995FF91EF9167
S1131600BF91AF919F918F917F916F915F914F9116
S11316103F912F910F900FBE0F901F9018951F921E
S11316200F920FB60F9211242F933F934F935F9312
S11316306F937F938F939F93AF93BF93EF93FF9396
S1131640E0914307F0914407309709F00995FF9121
S1131650EF91BF91AF919F918F917F916F915F9126
S11316604F913F912F910F900FBE0F901F9018959F
S113167081B1887F089581B18C7F81B981B1836004
S113168081B980E064E070E008C09B01229FB00152
S1131690239F700D700D11248F5F8330B0F3660F9C
S11316A0771F80E490E00E94780F60B985E082B9EA
S11316B086B7806486BF86B7806886BF86B7846035
S11316C086BF81E0089584EA86BF06B607FEFDCF93
S11316D00E94380B883011F481E0089580E0089569
S11316E084EA86BF06B607FEFDCF0E94380B803120
S11316F011F080E0089581E0089584E986BF81E0D7
S113170008956230F0F490E0880F991F862B83B916
S113171084E886BF06B607FEFDCF613041F40E941F
S1131720380B803481F00E947D0B80E008956111B4
S11317300CC00E94380B883151F00E947D0B80E070
S1131740089580E0089581E0089581E0089581E09E
S1131750089506B607FEFDCF83B984E886BF06B6B2
S113176007FEFDCF0E94380B883231F0883B31F000
S1131770883C31F481E0089581E0089581E0089582
S113178080E008950F931F93CF93009739F106B625
S113179007FEFDCF662319F0613021F021C024EC4F
S11317A026BF02C024E826BF06B607FEFDCFC62F1B
S11317B08C010E94380BCC2319F0C13031F009C0E0
S11317C0803539F0803871F404C0883511F08838D8
S11317D059F483B1F801808381E007C080E005C03B
S11317E080E003C080E001C080E0CF911F910F91A1
S11317F008951F920F920FB60F9211242F933F93C7
S11318004F935F936F937F938F939F93AF93BF9304
S1131810EF93FF93E0913A07F0913B07309709F07B
S11318200995FF91EF91BF91AF919F918F917F9116
S11318306F915F914F913F912F910F900FBE0F9039
S11318401F90189540E061E08CE00E94390940E067
S113185061E08DE00E94390940E060E08EE00E9482
S1131860390940E061E08FE00E94390985E58DB9CE
S113187008950E94220C0895CF93DF93EC0160E059
S11318808CE00E94770988818FB9779BFECF8FB156
S1131890888361E08CE00E947709DF91CF910895FD
S11318A0EF92FF920F931F93CF93DF937C01D62F78
S11318B0C0E00BC087010C0F111DC8010E943C0C35
S11318C0F8018081882319F0CF5FCD1798F3DF9159
S11318D0CF911F910F91FF90EF90089510BC83E377
S11318E089B988E18AB986E880BD80B58F7780BDE3
S11318F081E0809340070895982F809140078823C2
S113190041F081E0809340075D9BFECF9CB98091BC
S113191040070895FC0180914007882359F081E035
S1131920809340075F9BFECF2CB130E0318320834E
S1131930809140070895EF92FF920F931F93CF93E6
S11319407C01809140078823B1F081E080934007B7
S1131950C0E00DC087010C0F111DF801808190E0DB
S11319600E947C0CF8019081992319F0CF5FCF3F3E
S113197089F780914007CF911F910F91FF90EF90CD
S11319800895EF92FF920F931F93CF93DF937C01FF
S1131990809140078823D1F0D62F81E080934007BF
S11319A0C0E010C087010C0F111DC8010E948A0CF1
S11319B0F80190819D3011F09A3019F4F8011082E9
S11319C003C0CF5FCD1770F380914007DF91CF91B3
S11319D01F910F91FF90EF9008951F920F920FB6F1
S11319E00F9211242F933F934F935F936F937F93A1
S11319F08F939F93AF93BF93EF93FF93E0913E0731
S1131A00F0913F07309709F00995FF91EF91BF914D
S1131A10AF919F918F917F916F915F914F913F9182
S1131A202F910F900FBE0F901F9018951F920F9239
S1131A300FB60F9211242F933F934F935F936F939D
S1131A407F938F939F93AF93BF93EF93FF93E09113
S1131A503C07F0913D07309709F00995FF91EF910C
S1131A60BF91AF919F918F917F916F915F914F91B2
S1131A703F912F910F900FBE0F901F9018955058C3
S1131A80BB27AA270E94570D0C94A80E0E949A0EF9
S1131A9038F00E94A10E20F039F49F3F19F426F487
S1131AA00C94970E0EF4E095E7FB0C94910EE92F3D
S1131AB00E94B90E58F3BA17620773078407950793
S1131AC020F079F4A6F50C94DB0E0EF4E0950B2EC1
S1131AD0BA2FA02D0B01B90190010C01CA01A0017C
S1131AE01124FF27591B99F0593F50F4503E68F1D7
S1131AF01A16F040A22F232F342F4427585FF3CF18
S1131B00469537952795A795F0405395C9F77EF4E8
S1131B101F16BA0B620B730B840BBAF09150A1F031
S1131B20FF0FBB1F661F771F881FC2F70EC0BA0FB7
S1131B30621F731F841F48F4879577956795B7953F
S1131B40F7959E3F08F0B0CF9395880F08F099273A
S1131B50EE0F9795879508950E94C00D0C94A80EDA
S1131B600E94A10E58F00E949A0E40F029F45F3FA3
S1131B7029F00C94910E51110C94DC0E0C94970ED8
S1131B800E94B90E68F39923B1F3552391F3951B81
S1131B90550BBB27AA2762177307840738F09F5F8A
S1131BA05F4F220F331F441FAA1FA9F335D00E2EF7
S1131BB03AF0E0E832D091505040E695001CCAF764
S1131BC02BD0FE2F29D0660F771F881FBB1F261727
S1131BD037074807AB07B0E809F0BB0B802DBF01FE
S1131BE0FF2793585F4F3AF09E3F510578F00C94CD
S1131BF0910E0C94DC0E5F3FE4F3983ED4F386958B
S1131C0077956795B795F7959F5FC9F7880F911DED
S1131C109695879597F90895E1E0660F771F881FD9
S1131C20BB1F621773078407BA0720F0621B730B8C
S1131C30840BBA0BEE1F88F7E09508950E94250ED9
S1131C406894B1110C94DC0E08950E94C10E88F0C2
S1131C509F5798F0B92F9927B751B0F0E1F0660F6C
S1131C60771F881F991F1AF0BA95C9F714C0B130AD
S1131C7091F00E94DB0EB1E008950C94DB0E672F07
S1131C80782F8827B85F39F0B93FCCF386957795DC
S1131C906795B395D9F73EF49095809570956195C5
S1131CA07F4F8F4F9F4F0895E89409C097FB3EF4F0
S1131CB090958095709561957F4F8F4F9F4F992395
S1131CC0A9F0F92F96E9BB279395F6958795779513
S1131CD06795B795F111F8CFFAF4BB0F11F460FFD3
S1131CE01BC06F5F7F4F8F4F9F4F16C0882311F02B
S1131CF096E911C0772321F09EE8872F762F05C03F
S1131D00662371F096E8862F70E060E02AF09A95D9
S1131D10660F771F881FDAF7880F9695879597F9CE
S1131D20089597F99F6780E870E060E008959FEF59
S1131D3080EC089500240A9416161706180609065E
S1131D40089500240A94121613061406050608952D
S1131D50092E0394000C11F4882352F0BB0F40F4B5
S1131D60BF2B11F460FF04C06F5F7F4F8F4F9F4FF5
S1131D70089557FD9058440F551F59F05F3F71F077
S1131D804795880F97FB991F61F09F3F79F08795DE
S1131D900895121613061406551FF2CF4695F1DF67
S1131DA008C0161617061806991FF1CF86957105F7
S1131DB0610508940895E894BB2766277727CB012B
S1131DC097F908950E94540F08F48FEF08950E9424
S1131DD0FA0E0C94A80E0E949A0E38F00E94A10EDE
S1131DE020F0952311F00C94910E0C94970E11246D
S1131DF00C94DC0E0E94B90E70F3959FC1F3950FFD
S1131E0050E0551F629FF001729FBB27F00DB11D7A
S1131E10639FAA27F00DB11DAA1F649F6627B00D0A
S1131E20A11D661F829F2227B00DA11D621F739FF3
S1131E30B00DA11D621F839FA00D611D221F749F01
S1131E403327A00D611D231F849F600D211D822F48
S1131E50762F6A2F11249F5750409AF0F1F088236F
S1131E604AF0EE0FFF1FBB1F661F771F881F91509C
S1131E705040A9F79E3F510580F00C94910E0C94AC
S1131E80DC0E5F3FE4F3983ED4F38695779567952F
S1131E90B795F795E7959F5FC1F7FE2B880F911DC6
S1131EA09695879597F90895990F0008550FAA0BF1
S1131EB0E0E8FEEF16161706E807F907C0F0121659
S1131EC01306E407F50798F0621B730B840B950B5C
S1131ED039F40A2661F0232B242B252B21F40895B1
S1131EE00A2609F4A140A6958FEF811D811D08954E
S1131EF0AA1BBB1B51E107C0AA1FBB1FA617B7072C
S1131F0010F0A61BB70B881F991F5A95A9F7809547
S1131F109095BC01CD01089597FB072E16F400940B
S1131F2007D077FD09D00E94780F07FC05D03EF456
S1131F30909581959F4F0895709561957F4F089571
S1131F40052E97FB1EF400940E94B70F57FD07D08F
S1131F500E94C50F07FC03D04EF40C94B70F5095A4
S1131F604095309521953F4F4F4F5F4F0895909581
S1131F708095709561957F4F8F4F9F4F0895EE0F19
S1131F80FF1F0590F491E02D0994A1E21A2EAA1BDB
S1131F90BB1BFD010DC0AA1FBB1FEE1FFF1FA21715
S1131FA0B307E407F50720F0A21BB30BE40BF50B12
S1131FB0661F771F881F991F1A9469F7609570959B
S1131FC0809590959B01AC01BD01CF0108956627D2
S1131FD077270C941010BB274A3031F4992322F44C
S1131FE0BDE2909581959F4F0C94F70FBB27FB01A1
S1131FF05527AA27880F991FAA1FA41710F0A41BFE
S113200083955051B9F7A05DAA3308F0A95DA19357
S1132010009779F7B111B1931192CB010C947F1110
S1132020A0E0B0E0E6E1F0E10C94A811EC016B0152
S11320306115710519F0FB01918380837E01FFEF27
S1132040EF1AFF0A0881802F90E00E945E11892B0D
S113205011F0E701F3CF0D3239F47E0182E0E80E8E
S1132060F11C098111E008C00B3229F47E0192E0D1
S1132070E90EF11C098110E0E701219743E050E0EB
S113208066E770E0CE010E946711892BC1F42396A4
S113209045E050E061E770E0CE010E946711892BB2
S11320A009F42596C114D10419F0F601D183C08333
S11320B01111F6C060E070E080E89FE7FAC043E0E9
S11320C050E06EE670E0CE010E946711892B59F44E
S11320D0C114D10409F4E9C0F2E0EF0EF11CF601D9
S11320E0F182E082E2C020E030E0A901C0E0D0E06B
S11320F0F70180EDA82EA00E89E08A1530F1912F0A
S11321009260B92E812F887012FF04C0811124C0FF
S1132110219622C081112197A5E0B0E00E94971179
S1132120DC01CB01880F991FAA1FBB1F9C01AD01C5
S11321302A0D311D411D511D283989E938074807E9
S113214089E1580748F0166006C09EEFA9120AC03C
S113215013FD40C01860B12E8FEFE81AF80A008111
S11321601B2DC6CF802F8F7D8534A1F580818D32C4
S113217011F4106106C08B3221F0319661E070E0F9
S113218004C08181329662E070E080538A3018F096
S1132190E61BF70B1FC060E070E060389CE0790735
S11321A05CF4DB01AA0FBB1FAA0FBB1F6A0F7B1FC6
S11321B0660F771F680F711D3196DF0111978C919F
S11321C080538A3050F314FF03C0719561957109EF
S11321D0C60FD71F11FF08C0C114D10429F0CF01C5
S11321E00197F60191838083CA01B9010E94540EBC
S11321F0212F2370233019F04B015C0106C04B01E1
S11322005C01B7FAB094B7F8B09420E030E0A901CB
S1132210C501B4010E948F11882309F43EC0D7FF81
S113222006C0D195C195D1090DE810E002C005EAB8
S113223010E06801F8E1CF1AD10890E2E92EF12C00
S1132240CE15DF0574F0F80125913591459154912F
S1132250C501B4010E94E70E4B015C01CE19DF09F0
S1132260EFCF04501109F594E7940C151D0541F7BF
S11322708A2D880F8B2D881F8F3F49F020E030E096
S1132280A901C501B4010E948F11811106C082E227
S113229090E09093480780934707C501B40109C0B3
S11322A060E070E080E89FEF04C060E070E080ECE4
S11322B09FE7CDB7DEB7ECE00C94C41191110C94F8
S11322C09411803219F089508550C8F70895FB01A4
S11322D0DC014150504088F08D9181341CF08B35E5
S11322E00CF4805E659161341CF06B350CF4605E17
S11322F0861B611171F3990B0895881BFCCFDC01D7
S1132300FC01672F71917723E1F7329704C07C9128
S11323106D9370836291AE17BF07C8F308950E944E
S1132320540F08F481E008959927882708950E949E
S1132330D911A59F900DB49F900DA49F800D911D60
S1132340112408952F923F924F925F926F927F9241
S11323508F929F92AF92BF92CF92DF92EF92FF92B1
S11323600F931F93CF93DF93CDB7DEB7CA1BDB0B5D
S11323700FB6F894DEBF0FBECDBF09942A88398802
S113238048885F846E847D848C849B84AA84B98409
S1132390C884DF80EE80FD800C811B81AA81B98115
S11323A0CE0FD11D0FB6F894DEBF0FBECDBFED0129
S11323B00895A29FB001B39FC001A39F700D811D1A
S11323C01124911DB29F700D811D1124911D08953A
S10723D0F894FFCFAB
S11323D40243617264206E6F7420616C6C6F776564
S11323E46400696E2041444D494E206D6F6465005C
S11323F420202041444D494E204D4F444500456E14
S11324047465722050494E3A00456E7465722061B9
S11324146D6F756E743A00204D6178696D756D2029
S1132424416D6F756E7400202020204578636565C6
S1132434646564002020496E737566666963696522
S11324446E740020202020202046756E6400202015
S11324545472616E73616374696F6E00202020206E
S1132464417070726F7665640020496E636F727296
S11324746563742050494E0043617264206973207B
S1132484656A6563746564002020496E76616C69CD
S1132494642043617264004361726420656A656305
S11324A474656400506C732063686F6F7365206D8A
S11324B46F64650020202057656C636F6D6520741C
S11324C46F0020202041544D2053797374656D00AE
S11324D461646D696E00456E74657220746865206C
S11324E475736564206D6F6465202841444D494EBD
S11324F4202D2055534552293A0D00456E746572BA
S11325042050617373776F72643A0D00506C656187
S113251473652073656C656374206F6E65206F66E4
S11325242074686520666F6C6C6F77696E673A0D0A
S113253400312D20437573746F6D6572204461748A
S1132544610D00322D204D6178696D756D20416DEA
S11325546F756E740D00332D20457869740D005029
S11325646C7320656E746572206E756D626572207D
S11325746F662063617264733A2000506C65617302
S11325846520656E7465722050414E3A0D00506C9E
S11325946561736520656E7465722062616C616E39
S11325A463653A0D00506C6561736520656E7465EE
S11325B472206D6178696D756D20616D6F756E74CF
S11325C43A0D00496E76616C6964205061737377C7
S11325D46F72640D00312D20496E7365727420612D
S11325E4204361726400322D20446973706C6179F4
S11325F42054656D70002020506C6561736520451E
S11326046E74657200202020596F757220436172C4
S113261464210043757272656E742054656D703A5A
S1132624200053797374656D20626C6F636B656409
S1132634210054656D702069732061626F76652092
S1132644353000507265737320616E79206B65793F
S113265400496E76616C6964206D6F6465206973EA
S113266420696E7365727465640D000102030804C5
S11326740506071C1D1E1F030405061C1D1E1F3B07
S107268438353200AF
S9030000FC
