:100000000C942A000C9447000C9447000C94470071
:100010000C9447000C9447000C9447000C94470044
:100020000C9447000C9447000C9447000C94470034
:100030000C9447000C94B4030C9447000C94DD031B
:100040000C9447000C9447000C9447000C94BB029E
:100050000C94470011241FBECFE5D8E0DEBFCDBF12
:1000600010E0A0E6B0E0E8E3F8E002C005900D92F1
:10007000AC39B107D9F720E0ACE9B0E001C01D927E
:10008000A63FB207E1F70E94B7010C941A040C9442
:100090000000DC0120E030E00AC0FB01E20FF31FAA
:1000A0004081941788F0491788F02F5F3F4FFD017A
:1000B000E20FF31F90819111F0CFFB01E20FF31FCC
:1000C00080818111EACF08958FEF089581E008952E
:1000D000CF93DF93EC0120E090E00AC0FA01E20F39
:1000E000F11DDE01A90FB11D3C9130839F5F2F5F91
:1000F0009930A0F391E0920FFA01E20FF11D8CE725
:10010000808380E00AC0FA01E90FF11DDB01A80F2E
:10011000B11D2C9120838F5F9F5F8430A0F3DF910E
:10012000CF9108950E94A5038091B000813081F4A1
:1001300064E18CE990E00E94740360E670E08CE971
:1001400090E00E944900882319F00E94A0030895BE
:1001500086E690E00E944E0369E085EC90E00E9404
:1001600074038BE790E00E944E0364E080EC90E023
:100170000E94740380E990E00E944E0345EC50E039
:1001800069E070E080E090E00E942F0140EC50E0D8
:1001900064E070E08AE090E00E942F0141EB50E0C3
:1001A00060EC70E085EC90E00E9468000E94A00383
:1001B00008951092B0000E9417030E94A00382E9E4
:1001C00090E00E94AA030E94FB020E942B0145ECD2
:1001D00050E069E070E080E090E00E946D0140EC4A
:1001E00050E064E070E08AE090E00E946D0180E001
:1001F00016C0282F30E0F901EB53FF4F9081905348
:100200009A3048F4843050F4F901E054FF4F908163
:1002100090539A3018F00E94920003C08F5F89308B
:1002200040F341EB50E060EC70E085EC90E00E9420
:10023000680081E08093B00078940895B4990AC072
:100240000E94A50381EB90E00E9402030E94A0039C
:10025000B49BFECF08950E94FD0181E00895CF92E6
:10026000DF92EF92FF920F931F93CF93DF9341158D
:10027000510539F1292F2770C22FC0659C01260F27
:10028000371F21153840F8F47A018B016C010E9468
:10029000250260E08C2F0E9443028C2D0E946B028D
:1002A000C0E0D0E007C0F701EC0FFD1F80810E9485
:1002B0006B022196C017D107B0F30E943F0281E084
:1002C00003C080E001C080E0DF91CF911F910F91CA
:1002D000FF90EF90DF90CF900895CF92DF92EF9252
:1002E000FF920F931F93CF9341155105A9F1292F29
:1002F0002770C22FC0659C01260F371F211538407B
:1003000068F58A017B016C010E94250260E08C2F58
:100310000E9443028C2D0E946B020E94320261E017
:100320008C2F0E944302C0E006C060E0800F911F46
:100330000E948402CF5F8C2F90E0970121503109F9
:100340008217930790F361E0800F911F0E9484024F
:100350000E943F0281E003C080E001C080E0CF91B5
:100360001F910F91FF90EF90DF90CF9008950E9422
:10037000D9000E941E01FDCF8032B0F56230B0F589
:100380004230B0F5E82FE695E695E695F0E0E856C0
:10039000FF4FE081F0E0DF015E91982F977021E040
:1003A00030E0092E02C0220F331F0A94E2F7209595
:1003B00070E0092E02C0660F771F0A94E2F7352F0E
:1003C0003223632B6C93308150E002C0440F551FE1
:1003D0009A95E2F72323422B4083E82FF0E0E15384
:1003E000FF4F81E08083089580E0089580E00895C4
:1003F00080E0089581B1887F089581B18C7F81B9B3
:1004000081B1836081B980E064E070E008C09B0145
:10041000229FB001239F700D700D11248F5F8330D8
:10042000B0F3660F771F80E490E00E94060460B985
:1004300085E082B986B7806486BF86B7806886BF4C
:1004400086B7846086BF81E0089584EA86BF06B6D9
:1004500007FEFDCF0E94FA01883011F481E0089573
:1004600080E0089584EA86BF06B607FEFDCF0E94AD
:10047000FA01803111F080E0089581E0089584E967
:1004800086BF81E008956230F0F490E0880F991FF4
:10049000862B83B984E886BF06B607FEFDCF6130A0
:1004A00041F40E94FA01803481F00E943F0280E012
:1004B000089561110CC00E94FA01883151F00E9428
:1004C0003F0280E0089580E0089581E0089581E092
:1004D000089581E0089506B607FEFDCF83B984E84C
:1004E00086BF06B607FEFDCF0E94FA01883231F0C2
:1004F000883B31F0883C31F481E0089581E0089533
:1005000081E0089580E008950F931F93CF930097A3
:1005100039F106B607FEFDCF662319F0613021F0F0
:1005200021C024EC26BF02C024E826BF06B607FE81
:10053000FDCFC62F8C010E94FA01CC2319F0C130E7
:1005400031F009C0803539F0803871F404C0883545
:1005500011F0883859F483B1F801808381E007C035
:1005600080E005C080E003C080E001C080E0CF9162
:100570001F910F9108951F920F920FB60F921124A1
:100580002F933F934F935F936F937F938F939F939B
:10059000AF93BF93EF93FF93E091EF00F091F000E2
:1005A000309709F00995FF91EF91BF91AF919F911D
:1005B0008F917F916F915F914F913F912F910F900C
:1005C0000FBE0F901F90189540E060E08CE00E94F5
:1005D000BC0140E060E08DE00E94BC0140E061E0D1
:1005E0008EE00E94BC0140E060E08FE00E94BC0110
:1005F00085E48DB908950E94E40208958FB9779B30
:10060000FECF08950F931F93CF938C01C0E003C0DA
:100610000E94FE02CF5FF801EC0FF11D8081811175
:10062000F7CF0E94FE02CF911F910F91089510BC49
:1006300083E389B988E18AB980B5846080BD80B5DB
:10064000826080BD80B58F7D80BD80B58F7E80BD8E
:1006500080B5877F80BD81E08093F5000895982F55
:100660008091F500882341F081E08093F5005D9B47
:10067000FECF9CB98091F5000895FC018091F500B2
:10068000882359F081E08093F5005F9BFECF2CB169
:1006900030E0318320838091F5000895EF92FF923E
:1006A0000F931F93CF937C018091F5008823B1F0C5
:1006B00081E08093F500C0E00DC087010C0F111D93
:1006C000F801808190E00E942F03F8019081992326
:1006D00019F0CF5FCF3F89F78091F500CF911F913F
:1006E0000F91FF90EF900895EF92FF920F931F9359
:1006F000CF93DF937C018091F5008823D1F0D62F32
:1007000081E08093F500C0E010C087010C0F111D3F
:10071000C8010E943D03F80190819D3011F09A308C
:1007200019F4F801108203C0CF5FCD1770F38091E8
:10073000F500DF91CF911F910F91FF90EF900895F9
:100740008AB180688AB981E008958AB18F778AB9C1
:1007500081E00895009731F09093F4008093F300C6
:1007600081E0089580E008951F920F920FB60F92D6
:1007700011242F933F934F935F936F937F938F93A6
:100780009F93AF93BF93EF93FF93E091F300F091AA
:10079000F400309709F00995FF91EF91BF91AF9167
:1007A0009F918F917F916F915F914F913F912F9189
:1007B0000F900FBE0F901F9018951F920F920FB6BB
:1007C0000F9211242F933F934F935F936F937F93D7
:1007D0008F939F93AF93BF93EF93FF93E091F100BB
:1007E000F091F200309709F00995FF91EF91BF91D8
:1007F000AF919F918F917F916F915F914F913F91B9
:100800002F910F900FBE0F901F901895AA1BBB1B26
:1008100051E107C0AA1FBB1FA617B70710F0A61B00
:10082000B70B881F991F5A95A9F780959095BC0121
:08083000CD010895F894FFCFFB
:1008380041444D494E000D456E7465722050414E3D
:10084800204E756D6265723A2020000D456E746504
:10085800722050494E204E756D6265723A20200014
:0C0868000D444F4E450D0D003B3835325D
:00000001FF
