:100000000C942A000C9447000C9447000C94470071
:100010000C9447000C9447000C9447000C94470044
:100020000C9447000C9447000C9447000C94470034
:100030000C9447000C94D8030C9447000C940104D2
:100040000C9447000C9447000C9447000C94DF027A
:100050000C94470011241FBECFE5D8E0DEBFCDBF12
:1000600010E0A0E6B0E0E0E8F8E002C005900D92F4
:10007000A43EB107D9F721E0A4EEB0E001C01D9283
:10008000AE34B207E1F70E94DB010C943E040C94FD
:100090000000DC0120E030E00AC0FB01E20FF31FAA
:1000A0004081941788F0491788F02F5F3F4FFD017A
:1000B000E20FF31F90819111F0CFFB01E20FF31FCC
:1000C00080818111EACF08958FEF089581E008952E
:1000D000CF93DF93EC0120E090E00AC0FA01E20F39
:1000E000F11DDE01A90FB11D3C9130839F5F2F5F91
:1000F0009930A0F391E0920FFA01E20FF11D8CE725
:10010000808380E00AC0FA01E90FF11DDB01A80F2E
:10011000B11D2C9120838F5F9F5F8430A0F3FA0183
:10012000E90FF11D1082DF91CF9108950E94C9035C
:100130008091F800813081F464E184EE90E00E94C7
:10014000980360E670E084EE90E00E944900882306
:1001500019F00E94C403089586E690E00E9472039D
:100160006FE088E091E00E9498038AE790E00E94A7
:10017000720369E08DE191E00E9498038FE890E0BE
:100180000E94720364E088E191E00E94980384EA8F
:1001900090E00E9472034DE151E069E070E080E080
:1001A00090E00E94530148E151E064E070E08AE091
:1001B00090E00E94530148E051E06FE070E080E180
:1001C00090E00E94530149EF50E068E171E08DE159
:1001D00091E00E9468000E94C4030895CF9330C04C
:1001E0004DE151E069E070E080E090E00E94910113
:1001F00048E151E064E070E08AE090E00E94910103
:1002000080E01BC0282F30E0F901E35EFE4F9081B3
:1002100090539A3048F4843070F4F901E85EFE4F50
:10022000908190539A3038F08CEA90E00E947203EB
:100230000E94960005C08F5FC0E0893018F301C0AE
:10024000C1E0C111CDCFCF9108951092F8000E9466
:100250003B030E94C40386E990E00E94CE030E9403
:100260001F030E944F010E94EE0049EF50E068E139
:1002700071E08DE191E00E94680081E08093F800D8
:1002800078940895B4990AC00E94C90389EF90E058
:100290000E9426030E94C403B49BFECF08950E94CF
:1002A000210281E00895CF92DF92EF92FF920F93A7
:1002B0001F93CF93DF934115510539F1292F2770F3
:1002C000C22FC0659C01260F371F21153840F8F456
:1002D0007A018B016C010E94490260E08C2F0E9420
:1002E00067028C2D0E948F02C0E0D0E007C0F701AA
:1002F000EC0FFD1F80810E948F022196C017D1074D
:10030000B0F30E94630281E003C080E001C080E09E
:10031000DF91CF911F910F91FF90EF90DF90CF90E1
:100320000895CF92DF92EF92FF920F931F93CF9396
:1003300041155105A9F1292F2770C22FC0659C01D5
:10034000260F371F2115384068F58A017B016C01A3
:100350000E94490260E08C2F0E9467028C2D0E944F
:100360008F020E94560261E08C2F0E946702C0E05B
:1003700006C060E0800F911F0E94A802CF5F8C2F03
:1003800090E09701215031098217930790F361E0C3
:10039000800F911F0E94A8020E94630281E003C0A7
:1003A00080E001C080E0CF911F910F91FF90EF900E
:1003B000DF90CF9008950E9425010E944201FDCF59
:1003C0008032B0F56230B0F54230B0F5E82FE695F6
:1003D000E695E695F0E0E152FF4FE081F0E0DF01C5
:1003E0005E91982F977021E030E0092E02C0220F15
:1003F000331F0A94E2F7209570E0092E02C0660FC1
:10040000771F0A94E2F7352F3223632B6C933081E8
:1004100050E002C0440F551F9A95E2F72323422B68
:100420004083E82FF0E0E95DFE4F81E0808308958E
:1004300080E0089580E0089580E0089581B1887F8C
:10044000089581B18C7F81B981B1836081B980E0E9
:1004500064E070E008C09B01229FB001239F700DF3
:10046000700D11248F5F8330B0F3660F771F80E427
:1004700090E00E942A0460B985E082B986B7806462
:1004800086BF86B7806886BF86B7846086BF81E0F6
:10049000089584EA86BF06B607FEFDCF0E941E02BD
:1004A000883011F481E0089580E0089584EA86BFE1
:1004B00006B607FEFDCF0E941E02803111F080E0DB
:1004C000089581E0089584E986BF81E0089562304F
:1004D000F0F490E0880F991F862B83B984E886BFDB
:1004E00006B607FEFDCF613041F40E941E02803443
:1004F00081F00E94630280E0089561110CC00E94A7
:100500001E02883151F00E94630280E0089580E06D
:10051000089581E0089581E0089581E0089506B688
:1005200007FEFDCF83B984E886BF06B607FEFDCF80
:100530000E941E02883231F0883B31F0883C31F451
:1005400081E0089581E0089581E0089580E00895B4
:100550000F931F93CF93009739F106B607FEFDCF97
:10056000662319F0613021F021C024EC26BF02C0BF
:1005700024E826BF06B607FEFDCFC62F8C010E94D9
:100580001E02CC2319F0C13031F009C0803539F09A
:10059000803871F404C0883511F0883859F483B17B
:1005A000F801808381E007C080E005C080E003C0DF
:1005B00080E001C080E0CF911F910F9108951F92BC
:1005C0000F920FB60F9211242F933F934F935F9387
:1005D0006F937F938F939F93AF93BF93EF93FF930B
:1005E000E0914701F0914801309709F00995FF919A
:1005F000EF91BF91AF919F918F917F916F915F919B
:100600004F913F912F910F900FBE0F901F90189513
:1006100040E060E08CE00E94E00140E060E08DE0BE
:100620000E94E00140E061E08EE00E94E00140E0D5
:1006300060E08FE00E94E00185E48DB908950E949A
:10064000080308958FB9779BFECF08950F931F93EA
:10065000CF938C01C0E003C00E942203CF5FF8015A
:10066000EC0FF11D80818111F7CF0E942203CF9101
:100670001F910F91089510BC83E389B988E18AB96D
:1006800080B5846080BD80B5826080BD80B58F7D7F
:1006900080BD80B58F7E80BD80B5877F80BD81E0C5
:1006A00080934D010895982F80914D01882341F04A
:1006B00081E080934D015D9BFECF9CB980914D01FF
:1006C0000895FC0180914D01882359F081E08093C9
:1006D0004D015F9BFECF2CB130E0318320838091B0
:1006E0004D010895EF92FF920F931F93CF937C01DA
:1006F00080914D018823B1F081E080934D01C0E0ED
:100700000DC087010C0F111DF801808190E00E943F
:100710005303F8019081992319F0CF5FCF3F89F7F8
:1007200080914D01CF911F910F91FF90EF9008950F
:10073000EF92FF920F931F93CF93DF937C018091F1
:100740004D018823D1F0D62F81E080934D01C0E088
:1007500010C087010C0F111DC8010E946103F80130
:1007600090819D3011F09A3019F4F801108203C085
:10077000CF5FCD1770F380914D01DF91CF911F9125
:100780000F91FF90EF9008958AB180688AB981E057
:1007900008958AB18F778AB981E00895009731F082
:1007A00090934C0180934B0181E0089580E008957F
:1007B0001F920F920FB60F9211242F933F934F93D6
:1007C0005F936F937F938F939F93AF93BF93EF93B9
:1007D000FF93E0914B01F0914C01309709F009959E
:1007E000FF91EF91BF91AF919F918F917F916F9109
:1007F0005F914F913F912F910F900FBE0F901F90DF
:1008000018951F920F920FB60F9211242F933F93BA
:100810004F935F936F937F938F939F93AF93BF9308
:10082000EF93FF93E0914901F0914A01309709F06D
:100830000995FF91EF91BF91AF919F918F917F911A
:100840006F915F914F913F912F910F900FBE0F903D
:100850001F901895AA1BBB1B51E107C0AA1FBB1F05
:10086000A617B70710F0A61BB70B881F991F5A953C
:10087000A9F780959095BC01CD010895F894FFCF1C
:1008800041444D494E000D456E74657220557365A7
:1008900072204E616D653A2020000D456E746572C0
:1008A0002050414E204E756D6265723A2020000D39
:1008B000456E7465722050494E204E756D626572AA
:1008C0003A2020000D444F4E450D0D000A0D4545C0
:1008D00050524F4D2044617461204572726F7220F6
:1008E0002E2E2E2E20506C6561736520496E70751A
:1008F00074205573657220446174613A0A0D003B9F
:040900003835320054
:00000001FF
